{
	"data": {
		"bytecode": {
			"linkReferences": {},
			"object": "608060405261012c600055600c600155602f60025534801561002057600080fd5b50610213806100306000396000f3fe608060405234801561001057600080fd5b506004361061004c5760003560e01c8063659281e6146100515780639a381aa81461006f578063a719efdb1461008d578063d0b42373146100ab575b600080fd5b6100596100b5565b6040518082815260200191505060405180910390f35b6100776100f2565b6040518082815260200191505060405180910390f35b61009561011f565b6040518082815260200191505060405180910390f35b6100b3610163565b005b60008060179050600154600054101580156100d35750600254600154105b156100ea57600154818202915081039150506100ef565b809150505b90565b6000600154600054108061010857506006600054145b1561011b5760015460005401905061011c565b5b90565b600080600054600154108015610139575060015460005414155b1561015e57600154600054029050600154818161015257fe5b04905080915050610160565b505b90565b600154600054106101dc576040517f08c379a000000000000000000000000000000000000000000000000000000000815260040180806020018281038252600d8152602001807f546861742069732066616c73650000000000000000000000000000000000000081525060200191505060405180910390fd5b56fea265627a7a72315820cbf4b474692e3b6458ad0e34a9cb86a7fe38be1042cee7524908cc968941cc9964736f6c63430005110032",
			"opcodes": "PUSH1 0x80 PUSH1 0x40 MSTORE PUSH2 0x12C PUSH1 0x0 SSTORE PUSH1 0xC PUSH1 0x1 SSTORE PUSH1 0x2F PUSH1 0x2 SSTORE CALLVALUE DUP1 ISZERO PUSH2 0x20 JUMPI PUSH1 0x0 DUP1 REVERT JUMPDEST POP PUSH2 0x213 DUP1 PUSH2 0x30 PUSH1 0x0 CODECOPY PUSH1 0x0 RETURN INVALID PUSH1 0x80 PUSH1 0x40 MSTORE CALLVALUE DUP1 ISZERO PUSH2 0x10 JUMPI PUSH1 0x0 DUP1 REVERT JUMPDEST POP PUSH1 0x4 CALLDATASIZE LT PUSH2 0x4C JUMPI PUSH1 0x0 CALLDATALOAD PUSH1 0xE0 SHR DUP1 PUSH4 0x659281E6 EQ PUSH2 0x51 JUMPI DUP1 PUSH4 0x9A381AA8 EQ PUSH2 0x6F JUMPI DUP1 PUSH4 0xA719EFDB EQ PUSH2 0x8D JUMPI DUP1 PUSH4 0xD0B42373 EQ PUSH2 0xAB JUMPI JUMPDEST PUSH1 0x0 DUP1 REVERT JUMPDEST PUSH2 0x59 PUSH2 0xB5 JUMP JUMPDEST PUSH1 0x40 MLOAD DUP1 DUP3 DUP2 MSTORE PUSH1 0x20 ADD SWAP2 POP POP PUSH1 0x40 MLOAD DUP1 SWAP2 SUB SWAP1 RETURN JUMPDEST PUSH2 0x77 PUSH2 0xF2 JUMP JUMPDEST PUSH1 0x40 MLOAD DUP1 DUP3 DUP2 MSTORE PUSH1 0x20 ADD SWAP2 POP POP PUSH1 0x40 MLOAD DUP1 SWAP2 SUB SWAP1 RETURN JUMPDEST PUSH2 0x95 PUSH2 0x11F JUMP JUMPDEST PUSH1 0x40 MLOAD DUP1 DUP3 DUP2 MSTORE PUSH1 0x20 ADD SWAP2 POP POP PUSH1 0x40 MLOAD DUP1 SWAP2 SUB SWAP1 RETURN JUMPDEST PUSH2 0xB3 PUSH2 0x163 JUMP JUMPDEST STOP JUMPDEST PUSH1 0x0 DUP1 PUSH1 0x17 SWAP1 POP PUSH1 0x1 SLOAD PUSH1 0x0 SLOAD LT ISZERO DUP1 ISZERO PUSH2 0xD3 JUMPI POP PUSH1 0x2 SLOAD PUSH1 0x1 SLOAD LT JUMPDEST ISZERO PUSH2 0xEA JUMPI PUSH1 0x1 SLOAD DUP2 DUP3 MUL SWAP2 POP DUP2 SUB SWAP2 POP POP PUSH2 0xEF JUMP JUMPDEST DUP1 SWAP2 POP POP JUMPDEST SWAP1 JUMP JUMPDEST PUSH1 0x0 PUSH1 0x1 SLOAD PUSH1 0x0 SLOAD LT DUP1 PUSH2 0x108 JUMPI POP PUSH1 0x6 PUSH1 0x0 SLOAD EQ JUMPDEST ISZERO PUSH2 0x11B JUMPI PUSH1 0x1 SLOAD PUSH1 0x0 SLOAD ADD SWAP1 POP PUSH2 0x11C JUMP JUMPDEST JUMPDEST SWAP1 JUMP JUMPDEST PUSH1 0x0 DUP1 PUSH1 0x0 SLOAD PUSH1 0x1 SLOAD LT DUP1 ISZERO PUSH2 0x139 JUMPI POP PUSH1 0x1 SLOAD PUSH1 0x0 SLOAD EQ ISZERO JUMPDEST ISZERO PUSH2 0x15E JUMPI PUSH1 0x1 SLOAD PUSH1 0x0 SLOAD MUL SWAP1 POP PUSH1 0x1 SLOAD DUP2 DUP2 PUSH2 0x152 JUMPI INVALID JUMPDEST DIV SWAP1 POP DUP1 SWAP2 POP POP PUSH2 0x160 JUMP JUMPDEST POP JUMPDEST SWAP1 JUMP JUMPDEST PUSH1 0x1 SLOAD PUSH1 0x0 SLOAD LT PUSH2 0x1DC JUMPI PUSH1 0x40 MLOAD PUSH32 0x8C379A000000000000000000000000000000000000000000000000000000000 DUP2 MSTORE PUSH1 0x4 ADD DUP1 DUP1 PUSH1 0x20 ADD DUP3 DUP2 SUB DUP3 MSTORE PUSH1 0xD DUP2 MSTORE PUSH1 0x20 ADD DUP1 PUSH32 0x546861742069732066616C736500000000000000000000000000000000000000 DUP2 MSTORE POP PUSH1 0x20 ADD SWAP2 POP POP PUSH1 0x40 MLOAD DUP1 SWAP2 SUB SWAP1 REVERT JUMPDEST JUMP INVALID LOG2 PUSH6 0x627A7A723158 KECCAK256 0xCB DELEGATECALL 0xB4 PUSH21 0x692E3B6458AD0E34A9CB86A7FE38BE1042CEE75249 ADDMOD 0xCC SWAP7 DUP10 COINBASE 0xCC SWAP10 PUSH5 0x736F6C6343 STOP SDIV GT STOP ORIGIN "
		},
		"gasEstimates": {
			"creation": {
				"codeDepositCost": "106200",
				"executionCost": "60171",
				"totalCost": "166371"
			},
			"external": {
				"Logic()": "4284",
				"a_b()": "5960",
				"less()": "1924",
				"sampler()": "4297"
			}
		},
		"methodIdentifiers": {
			"Logic()": "9a381aa8",
			"a_b()": "a719efdb",
			"less()": "d0b42373",
			"sampler()": "659281e6"
		}
	},
	"abi": [
		{
			"constant": true,
			"inputs": [],
			"name": "Logic",
			"outputs": [
				{
					"internalType": "uint256",
					"name": "",
					"type": "uint256"
				}
			],
			"payable": false,
			"stateMutability": "view",
			"type": "function"
		},
		{
			"constant": true,
			"inputs": [],
			"name": "a_b",
			"outputs": [
				{
					"internalType": "uint256",
					"name": "",
					"type": "uint256"
				}
			],
			"payable": false,
			"stateMutability": "view",
			"type": "function"
		},
		{
			"constant": true,
			"inputs": [],
			"name": "less",
			"outputs": [],
			"payable": false,
			"stateMutability": "view",
			"type": "function"
		},
		{
			"constant": true,
			"inputs": [],
			"name": "sampler",
			"outputs": [
				{
					"internalType": "uint256",
					"name": "",
					"type": "uint256"
				}
			],
			"payable": false,
			"stateMutability": "view",
			"type": "function"
		}
	]
}