{
	"data": {
		"bytecode": {
			"linkReferences": {},
			"object": "6080604052600a600055348015601457600080fd5b5060a3806100236000396000f3fe6080604052348015600f57600080fd5b506004361060285760003560e01c8063ca5d088014602d575b600080fd5b60336049565b6040518082815260200191505060405180910390f35b6000600a6000541415606157600a600054019050606a565b60016000540190505b9056fea2646970667358221220922af70f534a5bdb292efab6e6475d980f077e8803999cf3075b25ffed9f5db264736f6c63430007060033",
			"opcodes": "PUSH1 0x80 PUSH1 0x40 MSTORE PUSH1 0xA PUSH1 0x0 SSTORE CALLVALUE DUP1 ISZERO PUSH1 0x14 JUMPI PUSH1 0x0 DUP1 REVERT JUMPDEST POP PUSH1 0xA3 DUP1 PUSH2 0x23 PUSH1 0x0 CODECOPY PUSH1 0x0 RETURN INVALID PUSH1 0x80 PUSH1 0x40 MSTORE CALLVALUE DUP1 ISZERO PUSH1 0xF JUMPI PUSH1 0x0 DUP1 REVERT JUMPDEST POP PUSH1 0x4 CALLDATASIZE LT PUSH1 0x28 JUMPI PUSH1 0x0 CALLDATALOAD PUSH1 0xE0 SHR DUP1 PUSH4 0xCA5D0880 EQ PUSH1 0x2D JUMPI JUMPDEST PUSH1 0x0 DUP1 REVERT JUMPDEST PUSH1 0x33 PUSH1 0x49 JUMP JUMPDEST PUSH1 0x40 MLOAD DUP1 DUP3 DUP2 MSTORE PUSH1 0x20 ADD SWAP2 POP POP PUSH1 0x40 MLOAD DUP1 SWAP2 SUB SWAP1 RETURN JUMPDEST PUSH1 0x0 PUSH1 0xA PUSH1 0x0 SLOAD EQ ISZERO PUSH1 0x61 JUMPI PUSH1 0xA PUSH1 0x0 SLOAD ADD SWAP1 POP PUSH1 0x6A JUMP JUMPDEST PUSH1 0x1 PUSH1 0x0 SLOAD ADD SWAP1 POP JUMPDEST SWAP1 JUMP INVALID LOG2 PUSH5 0x6970667358 0x22 SLT KECCAK256 SWAP3 0x2A 0xF7 0xF MSTORE8 0x4A JUMPDEST 0xDB 0x29 0x2E STATICCALL 0xB6 0xE6 SELFBALANCE 0x5D SWAP9 0xF SMOD PUSH31 0x8803999CF3075B25FFED9F5DB264736F6C6343000706003300000000000000 "
		},
		"gasEstimates": {
			"creation": {
				"codeDepositCost": "32600",
				"executionCost": "20093",
				"totalCost": "52693"
			},
			"external": {
				"airDrop()": "1834"
			}
		},
		"methodIdentifiers": {
			"airDrop()": "ca5d0880"
		}
	},
	"abi": [
		{
			"inputs": [],
			"name": "airDrop",
			"outputs": [
				{
					"internalType": "uint256",
					"name": "",
					"type": "uint256"
				}
			],
			"stateMutability": "view",
			"type": "function"
		}
	]
}