{
	"data": {
		"bytecode": {
			"linkReferences": {},
			"object": "6080604052348015600f57600080fd5b5060a38061001e6000396000f3fe6080604052348015600f57600080fd5b506004361060285760003560e01c80634f2be91f14602d575b600080fd5b60336049565b6040518082815260200191505060405180910390f35b600080600290506000600c90508180600101925081806001019250820101925050509056fea265627a7a72315820d324ed37b5ff50a0aac2ac5ee26ad85cc7fe4accce46644ddc410468596a1e2964736f6c63430005110032",
			"opcodes": "PUSH1 0x80 PUSH1 0x40 MSTORE CALLVALUE DUP1 ISZERO PUSH1 0xF JUMPI PUSH1 0x0 DUP1 REVERT JUMPDEST POP PUSH1 0xA3 DUP1 PUSH2 0x1E PUSH1 0x0 CODECOPY PUSH1 0x0 RETURN INVALID PUSH1 0x80 PUSH1 0x40 MSTORE CALLVALUE DUP1 ISZERO PUSH1 0xF JUMPI PUSH1 0x0 DUP1 REVERT JUMPDEST POP PUSH1 0x4 CALLDATASIZE LT PUSH1 0x28 JUMPI PUSH1 0x0 CALLDATALOAD PUSH1 0xE0 SHR DUP1 PUSH4 0x4F2BE91F EQ PUSH1 0x2D JUMPI JUMPDEST PUSH1 0x0 DUP1 REVERT JUMPDEST PUSH1 0x33 PUSH1 0x49 JUMP JUMPDEST PUSH1 0x40 MLOAD DUP1 DUP3 DUP2 MSTORE PUSH1 0x20 ADD SWAP2 POP POP PUSH1 0x40 MLOAD DUP1 SWAP2 SUB SWAP1 RETURN JUMPDEST PUSH1 0x0 DUP1 PUSH1 0x2 SWAP1 POP PUSH1 0x0 PUSH1 0xC SWAP1 POP DUP2 DUP1 PUSH1 0x1 ADD SWAP3 POP DUP2 DUP1 PUSH1 0x1 ADD SWAP3 POP DUP3 ADD ADD SWAP3 POP POP POP SWAP1 JUMP INVALID LOG2 PUSH6 0x627A7A723158 KECCAK256 0xD3 0x24 0xED CALLDATACOPY 0xB5 SELFDESTRUCT POP LOG0 0xAA 0xC2 0xAC 0x5E 0xE2 PUSH11 0xD85CC7FE4ACCCE46644DDC COINBASE DIV PUSH9 0x596A1E2964736F6C63 NUMBER STOP SDIV GT STOP ORIGIN "
		},
		"gasEstimates": {
			"creation": {
				"codeDepositCost": "32600",
				"executionCost": "87",
				"totalCost": "32687"
			},
			"external": {
				"add()": "257"
			}
		},
		"methodIdentifiers": {
			"add()": "4f2be91f"
		}
	},
	"abi": [
		{
			"constant": true,
			"inputs": [],
			"name": "add",
			"outputs": [
				{
					"internalType": "uint256",
					"name": "",
					"type": "uint256"
				}
			],
			"payable": false,
			"stateMutability": "view",
			"type": "function"
		}
	]
}